:020000040000FA
:040004007EEF1FF07C
:103218001200010E6FEC19F0120092820E0EC16EB0
:10322800BE0EC06E050EC26E120094929494CA84AB
:103238007C0ECB6E0C0EBD6E060ECA6EBE6A1200F8
:10324800949C948E4D0EAF6EAC94B896AC98AB8EA1
:10325800AC8AAB881200016EACA235EF19F037EFDB
:1032680019F030EF19F001C0ADFF1200016E0F0E1A
:103278008C16F00E011601508C128D84F00E00D0C1
:10328800E82EFDD78D94120000EE83F0220EEE6A30
:10329800E806FDE14B6A4A6A496A486A476A000ECD
:1032A800F86E0001CDEF1DF0500EE82EFED7C28259
:1032B800C2B261EF19F063EF19F05CEF19F0C35077
:1032C800C4CF03F0046A03C004F0036A0310016E5C
:1032D8000450026E1200026E8D90B9EC1AF0956AD5
:1032E800F00E00D0E82EFDD78D928D948D9002506F
:1032F800F00B036E03503AEC19F00238F00B036E32
:1033080003503AEC19F01200026E8D80B9EC1AF0F5
:10331800956AF00E00D0E82EFDD78D928D948D80A1
:103328000250F00B036E03503AEC19F00238F00B20
:10333800036E03503AEC19F0120008BEA6EF19F01C
:10334800A8EF19F0AEEF19F007C007F008C008F0B1
:10335800BAEF19F007C009F008C00AF0091E0A1EE2
:10336800094A0A2A09C007F00AC008F01200340EF8
:10337800366E31C037F0000E3A6E000E396E000E10
:10338800416E000E406E370E2B6E32C02CF033C0EB
:103398002DF0360E2E6E12EC1AF031503924D96EFB
:1033A800DA6ADF6A1200056E0504D8A4DEEF19F0A8
:1033B800E0EF19F0E6EF19F00450800F6FEC19F008
:1033C800F3EF19F0020E0518D8A4EDEF19F0EFEF9E
:1033D80019F0F3EF19F00450C00F6FEC19F0120058
:1033E800000E0D6E000E0C6E03EF1AF00BC001F00C
:1033F800026A0AC003F037EC1BF00C4A0D2A095088
:103408000C24D96EDA6ADF500B6E0B50D8A40FEF7C
:103418001AF011EF1AF0FAEF19F012002CC02FF081
:103428002DC030F020EF1AF02BC020F02F0E216EA7
:103438002EC022F09AEC1CF02FC0F6FF30C0F7FF28
:103448000800F5500009D8A42CEF1AF02EEF1AF056
:1034580018EF1AF0000E2C6E000E2B6E1200096A7F
:10346800096A50EF1AF009500424076E000E05206F
:10347800086E07C0F6FF08C0F7FFF86A070EF76482
:1034880003D00800F55005D0F6CFE1FFF7CFE2FFF3
:10349800E75088EC19F0092A0650095CD8A057EFC4
:1034A8001AF059EF1AF037EF1AF0120070EF1AF00D
:1034B80002C0F6FF03C0F7FFF86A070EF76403D0EF
:1034C8000800F55005D0F6CFE1FFF7CFE2FFE7504F
:1034D8002FEC19F0024A032A02C0F6FF03C0F7FFD7
:1034E800F86A070EF76403D00800F55005D0F6CF48
:1034F800E1FFF7CFE2FFE7500009D8A486EF1AF002
:1035080088EF1AF05CEF1AF012008D908D92300E51
:103518003AEC19F0200E046E2A0EE82EFED7042E7F
:10352800FCD7200E046E2A0EE82EFED7042EFCD7F8
:10353800300E3AEC19F0F00E00D0E82EFDD7300E20
:103548003AEC19F0200E3AEC19F0010E6FEC19F074
:10355800280E6FEC19F00F0E6FEC19F0060E6FECD9
:1035680019F0010E6FEC19F01200F80E956E8D909F
:103578008D828D84F00E00D0E82EFDD783CF01F028
:103588008D94F00E00D0E82EFDD78D84F00E00D07B
:10359800E82EFDD78D940150800B016EE8EF1AF0EC
:1035A8008D84F00E00D0E82EFDD783CF01F08D94E6
:1035B800F00E00D0E82EFDD78D84F00E00D0E82E56
:1035C800FDD78D94CFEF1AF0800E0118D8B4EFEF25
:1035D8001AF0F1EF1AF0D4EF1AF012004BA0F7EF3F
:1035E8001AF0F9EF1AF0FFEF1AF00FC009F00EC049
:1035F8000AF0F4EC19F011BE06EF1BF004EF1BF013
:103608000AEF1BF0000E116E000E106E000E146E05
:10361800000E136E1AEF1BF0000E026E200E016EE4
:103628000EC003F037EC1BF0134A142A1050135C39
:103638001450800A126E1150800A1258D8A027EF31
:103648001BF029EF1BF010EF1BF04BB02EEF1BF017
:1036580030EF1BF036EF1BF00FC009F00EC00AF078
:10366800F4EC19F012000350D8B43DEF1BF03FEF13
:103678001BF047EF1BF00350D8A445EF1BF047EFB2
:103688001BF04CEF1BF001500CEC19F08BEF1BF00A
:103698000350D96EDA6A090ED926DE50DE10D8B486
:1036A80058EF1BF05AEF1BF073EF1BF00350D96E65
:1036B800DA6A090ED9260350E16EE26A020EE126A3
:1036C800DE50E65CE650800A086EDE50800A085834
:1036D800D8B071EF1BF073EF1BF08BEF1BF00350AA
:1036E800D96EDA6A020ED926DF50046E0350D96EFD
:1036F800DA6ADF500424D96EDA6A01C0DFFF0350AA
:10370800D96EDA6A020ED926DE2A000EDD221200F0
:10371800000E076E000E066E0150D96EDA6ADECF13
:10372800F6FFDDCFF7FF0800F5502A0AD8A49FEF6F
:103738001BF0A1EF1BF0CAEF1BF00150D96EDA6A3B
:10374800DE2A000EDD220250D96EDA6A020EDF266A
:10375800DF5CD96EDA6ADECF06F0DECF07F0DDEF88
:103768001BF00A0E0602F3CF03F0F4CF04F00702B1
:10377800F350042605500324066E000E0420076E3D
:103788000150D96EDA6ADE2A000EDD220150D96EA8
:10379800DA6ADECFF6FFDDCFF7FF0800F550D00F6D
:1037A800056E090E0564DBEF1BF0DDEF1BF0B5EFCE
:1037B8001BF006C001F007C002F01200066A02BE44
:1037C800EAEF1BF0E8EF1BF0F0EF1BF0016C021EB4
:1037D800D8B0022A010E066E04BEF7EF1BF0F5EF13
:1037E8001BF0FBEF1BF0036C041ED8B0042A035037
:1037F8000410D8B402EF1CF004EF1CF028EF1CF002
:10380800010E056E0CEF1CF0D89003360436052A1D
:1038180004AE11EF1CF013EF1CF008EF1CF003507E
:10382800015C04500258D8A01CEF1CF01EEF1CF0DD
:1038380022EF1CF00350015E0450025AD890043263
:103848000332052E13EF1CF00650D8B42EEF1CF0EF
:1038580030EF1CF034EF1CF0016C021ED8B0022AC5
:1038680001C001F002C002F01200066A04BE41EF76
:103878001CF03FEF1CF047EF1CF0036C041ED8B09F
:10388800042A010E066E02BE4EEF1CF04CEF1CF02F
:1038980054EF1CF0016C021ED8B0022A010E061A61
:1038A800000E086E000E076E03500410D8B45FEFC8
:1038B8001CF061EF1CF089EF1CF0010E056E69EF3A
:1038C8001CF0D89003360436052A04AE6EEF1CF0BF
:1038D80070EF1CF065EF1CF0D890073608360350DF
:1038E800015C04500258D8A07CEF1CF07EEF1CF05D
:1038F80083EF1CF00350015E0450025A0780D890F1
:1039080004320332052E70EF1CF00650D8B48FEF46
:103918001CF091EF1CF095EF1CF0076C081ED8B056
:10392800082A07C001F008C002F012002150D96E21
:10393800DA6ADECFF6FFDDCFF7FF0800F550250A7B
:10394800D8A4A9EF1CF0ABEF1CF01DEF1DF021501F
:10395800D96EDA6ADE2A000EDD22000E486E000EED
:10396800476E47C04BF049684A6821C001F022C041
:1039780002F08CEC1BF001C047F002C048F048BED2
:10398800CAEF1CF0C8EF1CF0CFEF1CF04B80476C5F
:10399800481ED8B0482A2150D96EDA6ADECF29F0FD
:1039A800DDCF2AF029C0F6FF2AC0F7FF0800F5503E
:1039B800640AD8B4E2EF1CF0E4EF1CF0F2EF1CF05C
:1039C80029C0F6FF2AC0F7FF0800F550690AD8A4F5
:1039D800F0EF1CF0F2EF1CF015EF1DF02250D96E3D
:1039E800DA6A020EDF26DF5CD96EDA6ADECF25F0EE
:1039F800DECF26F0010E2924236E000E2A20246E25
:103A08002150D96EDA6A23C0DEFF24C0DDFF20C052
:103A180015F025C016F026C017F02FEC1DF02EEF7C
:103A28001DF02150D96EDA6ADE2A000EDD222EEF53
:103A38001DF02150D96EDA6ADECFF6FFDDCFF7FF31
:103A48000800F550016E026A20C003F037EC1BF045
:103A580015EF1DF01200010E1C6E17BE36EF1DF09B
:103A680039EF1DF0010E3AEF1DF0000E1D6E47C034
:103A78001AF048C01BF01D50D8B445EF1DF047EFB1
:103A88001DF05EEF1DF01A06D8A01B061D50D8A425
:103A980050EF1DF052EF1DF058EF1DF0000E196E9B
:103AA8002B0E186E5CEF1DF0000E196E2D0E186EA1
:103AB80018C01DF0000E1F6E1F0E1E6E0001A46BB5
:103AC80092EF1DF01E06D8A01F061E50850FD96E56
:103AD800DA6A16C001F017C002F0000E046E0A0E72
:103AE800036EE2EC1BF001C007F002C008F0A1EC85
:103AF80019F00750300FDF6E1C6A1A06D8A01B0693
:103B080016C001F017C002F0000E046E0A0E036E14
:103B180039EC1CF001C016F002C017F01FBE9DEF73
:103B28001DF01F5008E11E04D8A09DEF1DF09FEF67
:103B38001DF0B0EF1DF016501710D8A4A6EF1DF019
:103B4800A8EF1DF066EF1DF01C50D8A4AEEF1DF0D5
:103B5800B0EF1DF066EF1DF01D50D8B4B6EF1DF0A4
:103B6800B8EF1DF0C1EF1DF01E06D8A01F061E50AD
:103B7800850FD96EDA6A1DC0DFFF15C00EF01E5022
:103B8800850F0F6E1AC010F01BC011F0F2EC1AF07E
:103B98001200956A966A89EC1AF0070E436E170EA2
:103BA800426E6A0EE82EFED7422EFCD7432EFAD775
:103BB80000D00DEC19F04E0E426EEB0EE82EFED73B
:103BC800422EFCD70000010E046E010ED7EC19F04E
:103BD800D10E046E3E0E056E0C0E066E33EC1AF016
:103BE800010E046E020ED7EC19F0E90E046E3E0EBB
:103BF800056E080E066E33EC1AF011EC19F019EC8C
:103C080019F024EC19F0959058EC19F001C079F0EE
:103C180002C07AF0F40E426E010E436E425000016B
:103C28007903F3CF44F0F4CF45F07A03F3504526F7
:103C380043507903F35045260A0E466ED890453214
:103C48004432462E22EF1EF044C081F045C082F077
:103C58009EAA31EF1EF033EF1EF070EF1EF0AECFCC
:103C68007EF0310E7E19D8A43CEF1EF03EEF1EF018
:103C78004AEF1EF0010E846F010E836FB60E026EBE
:103C88003E0E036E5AEC1AF070EF1EF0300E7E19DD
:103C9800D8A451EF1EF053EF1EF05EEF1EF0010E98
:103CA800846F836BA70E026E3E0E036E5AEC1AF0F9
:103CB80070EF1EF0610E7E19D8A465EF1EF067EF55
:103CC8001EF070EF1EF0846BC40E026E3E0E036E83
:103CD8005AEC1AF070EF1EF000018451D8B477EF57
:103CE8001EF079EF1EF080EF1EF083B102D08C90A9
:103CF80001D08C8093EF1EF0825107E11F0E815D89
:103D0800D8B089EF1EF08DEF1EF0426A422A8EEF7E
:103D18001EF0426A8C504218FE0B42188C6E00014D
:103D2800825109E1140E815DD8A09DEF1EF09FEF2E
:103D38001EF0A7EF1EF0EC0E81257F6FFF0E82218B
:103D4800806FABEF1EF0000E806F000E7F6F80BF9C
:103D5800B7EF1EF0805109E11F0E7F5DD8A0B7EFC5
:103D68001EF0B9EF1EF0BDEF1EF0000E806F1E0EA4
:103D78007F6F7F517F03F3CF42F0F4CF43F080038E
:103D8800F350432680517F03F3504326FF0E42022F
:103D9800F3CF44F0F4CF45F04302F350452644C036
:103DA80001F045C002F0030E046E840E036E39EC78
:103DB8001CF0015000017D6F7D41E8423F0BBE6E53
:103DC8007DC042F0030E4216423ABD504218CF0B56
:103DD8004218BD6E070E436E170E426E6A0EE82E2D
:103DE800FED7422EFCD7432EFAD700D00D0E046E14
:103DF800010ED7EC19F0740E316EF20E326E3E0ED3
:103E0800336E81C034F082C035F0BBEC19F0740E0B
:103E1800046E056A040E066E33EC1AF0060E046E84
:103E2800020ED7EC19F08CB01CEF1FF01EEF1FF03C
:103E380025EF1FF0EE0E00017B6F3E0E7C6F2AEF20
:103E48001FF0F70E00017B6F3E0E7C6F7BC004F005
:103E58007CC005F0030E066E33EC1AF0600E316E6E
:103E6800DE0E326E3E0E336E81C034F082C035F005
:103E7800BBEC19F0600E026E036A5AEC1AF01F0EC2
:103E8800436E710E426E1E0EE82EFED7422EFCD7F0
:103E9800432EFAD700D008EF1EF07EEF1FF0004F38
:103EA80076657272696465204F46460D0A004F7642
:103EB800657272696465204F4E0D0A004175746F12
:103EC8006D617469636F0D0A0054656D7065726188
:103ED800747572613A0054656D703D2564430D0A2E
:103EE8000056454E543A4F46460025336443004F2A
:083EF8004E20000048EF19F014
:020000040020DA
:08000000FFFFFFFFFFFFFFFF00
:020000040030CA
:0E000000040E1E1EFF8181FF0FC00FE00F4097
:00000001FF
